{
  "_format": "hh-sol-artifact-1",
  "contractName": "PiggyBank",
  "sourceName": "contracts/PiggyBank.sol",
  "abi": [
    {
      "inputs": [
        {
          "internalType": "uint256",
          "name": "tokenTotalSupply",
          "type": "uint256"
        },
        {
          "internalType": "string",
          "name": "tokenName",
          "type": "string"
        },
        {
          "internalType": "string",
          "name": "tokenSymbol",
          "type": "string"
        },
        {
          "internalType": "uint8",
          "name": "tokenDecimals",
          "type": "uint8"
        }
      ],
      "stateMutability": "nonpayable",
      "type": "constructor"
    },
    {
      "anonymous": false,
      "inputs": [
        {
          "indexed": true,
          "internalType": "address",
          "name": "owner",
          "type": "address"
        },
        {
          "indexed": true,
          "internalType": "address",
          "name": "spender",
          "type": "address"
        },
        {
          "indexed": false,
          "internalType": "uint256",
          "name": "value",
          "type": "uint256"
        }
      ],
      "name": "Approval",
      "type": "event"
    },
    {
      "anonymous": false,
      "inputs": [
        {
          "indexed": true,
          "internalType": "uint256",
          "name": "id",
          "type": "uint256"
        },
        {
          "indexed": true,
          "internalType": "address",
          "name": "seller",
          "type": "address"
        },
        {
          "indexed": false,
          "internalType": "uint256",
          "name": "amount",
          "type": "uint256"
        },
        {
          "indexed": false,
          "internalType": "uint256",
          "name": "price",
          "type": "uint256"
        }
      ],
      "name": "OrderPlaced",
      "type": "event"
    },
    {
      "anonymous": false,
      "inputs": [
        {
          "indexed": true,
          "internalType": "address",
          "name": "previousOwner",
          "type": "address"
        },
        {
          "indexed": true,
          "internalType": "address",
          "name": "newOwner",
          "type": "address"
        }
      ],
      "name": "OwnershipTransferred",
      "type": "event"
    },
    {
      "anonymous": false,
      "inputs": [
        {
          "indexed": true,
          "internalType": "uint256",
          "name": "id",
          "type": "uint256"
        },
        {
          "indexed": true,
          "internalType": "address",
          "name": "seller",
          "type": "address"
        },
        {
          "indexed": true,
          "internalType": "address",
          "name": "buyer",
          "type": "address"
        },
        {
          "indexed": false,
          "internalType": "uint256",
          "name": "amount",
          "type": "uint256"
        },
        {
          "indexed": false,
          "internalType": "uint256",
          "name": "price",
          "type": "uint256"
        }
      ],
      "name": "Selled",
      "type": "event"
    },
    {
      "anonymous": false,
      "inputs": [
        {
          "indexed": true,
          "internalType": "address",
          "name": "holder",
          "type": "address"
        },
        {
          "indexed": false,
          "internalType": "uint256",
          "name": "amount",
          "type": "uint256"
        },
        {
          "indexed": false,
          "internalType": "uint256",
          "name": "stakeholderId",
          "type": "uint256"
        },
        {
          "indexed": false,
          "internalType": "uint256",
          "name": "stakedAt",
          "type": "uint256"
        }
      ],
      "name": "Staked",
      "type": "event"
    },
    {
      "anonymous": false,
      "inputs": [
        {
          "indexed": true,
          "internalType": "address",
          "name": "from",
          "type": "address"
        },
        {
          "indexed": true,
          "internalType": "address",
          "name": "to",
          "type": "address"
        },
        {
          "indexed": false,
          "internalType": "uint256",
          "name": "value",
          "type": "uint256"
        }
      ],
      "name": "Transfer",
      "type": "event"
    },
    {
      "anonymous": false,
      "inputs": [
        {
          "indexed": true,
          "internalType": "uint256",
          "name": "id",
          "type": "uint256"
        },
        {
          "indexed": false,
          "internalType": "uint256",
          "name": "newAmount",
          "type": "uint256"
        }
      ],
      "name": "UpdatedOrderAmount",
      "type": "event"
    },
    {
      "anonymous": false,
      "inputs": [
        {
          "indexed": true,
          "internalType": "uint256",
          "name": "id",
          "type": "uint256"
        },
        {
          "indexed": false,
          "internalType": "uint256",
          "name": "newPrice",
          "type": "uint256"
        }
      ],
      "name": "UpdatedOrderPrice",
      "type": "event"
    },
    {
      "inputs": [
        {
          "internalType": "address",
          "name": "owner",
          "type": "address"
        },
        {
          "internalType": "address",
          "name": "spender",
          "type": "address"
        }
      ],
      "name": "allowance",
      "outputs": [
        {
          "internalType": "uint256",
          "name": "",
          "type": "uint256"
        }
      ],
      "stateMutability": "view",
      "type": "function"
    },
    {
      "inputs": [
        {
          "internalType": "address",
          "name": "spender",
          "type": "address"
        },
        {
          "internalType": "uint256",
          "name": "amount",
          "type": "uint256"
        }
      ],
      "name": "approve",
      "outputs": [
        {
          "internalType": "bool",
          "name": "",
          "type": "bool"
        }
      ],
      "stateMutability": "nonpayable",
      "type": "function"
    },
    {
      "inputs": [
        {
          "internalType": "address",
          "name": "account",
          "type": "address"
        }
      ],
      "name": "balanceOf",
      "outputs": [
        {
          "internalType": "uint256",
          "name": "",
          "type": "uint256"
        }
      ],
      "stateMutability": "view",
      "type": "function"
    },
    {
      "inputs": [
        {
          "internalType": "address",
          "name": "account",
          "type": "address"
        },
        {
          "internalType": "uint256",
          "name": "amount",
          "type": "uint256"
        }
      ],
      "name": "burn",
      "outputs": [
        {
          "internalType": "bool",
          "name": "",
          "type": "bool"
        }
      ],
      "stateMutability": "nonpayable",
      "type": "function"
    },
    {
      "inputs": [
        {
          "internalType": "uint256",
          "name": "orderId",
          "type": "uint256"
        },
        {
          "internalType": "uint256",
          "name": "amount",
          "type": "uint256"
        }
      ],
      "name": "buyOrder",
      "outputs": [],
      "stateMutability": "payable",
      "type": "function"
    },
    {
      "inputs": [],
      "name": "claimReward",
      "outputs": [],
      "stateMutability": "nonpayable",
      "type": "function"
    },
    {
      "inputs": [],
      "name": "decimals",
      "outputs": [
        {
          "internalType": "uint8",
          "name": "",
          "type": "uint8"
        }
      ],
      "stateMutability": "view",
      "type": "function"
    },
    {
      "inputs": [],
      "name": "getCurrentTokenPrice",
      "outputs": [
        {
          "internalType": "uint256",
          "name": "",
          "type": "uint256"
        }
      ],
      "stateMutability": "view",
      "type": "function"
    },
    {
      "inputs": [],
      "name": "getEtherBalance",
      "outputs": [
        {
          "internalType": "uint256",
          "name": "",
          "type": "uint256"
        }
      ],
      "stateMutability": "view",
      "type": "function"
    },
    {
      "inputs": [
        {
          "internalType": "uint256",
          "name": "orderId",
          "type": "uint256"
        }
      ],
      "name": "getOrder",
      "outputs": [
        {
          "components": [
            {
              "internalType": "uint256",
              "name": "id",
              "type": "uint256"
            },
            {
              "internalType": "address",
              "name": "seller",
              "type": "address"
            },
            {
              "internalType": "uint256",
              "name": "amount",
              "type": "uint256"
            },
            {
              "internalType": "uint256",
              "name": "price",
              "type": "uint256"
            },
            {
              "internalType": "bool",
              "name": "active",
              "type": "bool"
            }
          ],
          "internalType": "struct Tradable.SellOrder",
          "name": "",
          "type": "tuple"
        }
      ],
      "stateMutability": "view",
      "type": "function"
    },
    {
      "inputs": [],
      "name": "listOrders",
      "outputs": [
        {
          "components": [
            {
              "internalType": "uint256",
              "name": "id",
              "type": "uint256"
            },
            {
              "internalType": "address",
              "name": "seller",
              "type": "address"
            },
            {
              "internalType": "uint256",
              "name": "amount",
              "type": "uint256"
            },
            {
              "internalType": "uint256",
              "name": "price",
              "type": "uint256"
            },
            {
              "internalType": "bool",
              "name": "active",
              "type": "bool"
            }
          ],
          "internalType": "struct Tradable.SellOrder[]",
          "name": "",
          "type": "tuple[]"
        }
      ],
      "stateMutability": "view",
      "type": "function"
    },
    {
      "inputs": [
        {
          "internalType": "address",
          "name": "account",
          "type": "address"
        },
        {
          "internalType": "uint256",
          "name": "amount",
          "type": "uint256"
        }
      ],
      "name": "mint",
      "outputs": [
        {
          "internalType": "bool",
          "name": "",
          "type": "bool"
        }
      ],
      "stateMutability": "nonpayable",
      "type": "function"
    },
    {
      "inputs": [],
      "name": "name",
      "outputs": [
        {
          "internalType": "string",
          "name": "",
          "type": "string"
        }
      ],
      "stateMutability": "view",
      "type": "function"
    },
    {
      "inputs": [],
      "name": "owner",
      "outputs": [
        {
          "internalType": "address",
          "name": "",
          "type": "address"
        }
      ],
      "stateMutability": "view",
      "type": "function"
    },
    {
      "inputs": [
        {
          "internalType": "uint256",
          "name": "amount",
          "type": "uint256"
        },
        {
          "internalType": "uint256",
          "name": "price",
          "type": "uint256"
        }
      ],
      "name": "placeOrder",
      "outputs": [],
      "stateMutability": "nonpayable",
      "type": "function"
    },
    {
      "inputs": [
        {
          "internalType": "uint256",
          "name": "orderId",
          "type": "uint256"
        }
      ],
      "name": "removeOrder",
      "outputs": [],
      "stateMutability": "nonpayable",
      "type": "function"
    },
    {
      "inputs": [],
      "name": "renounceOwnership",
      "outputs": [],
      "stateMutability": "nonpayable",
      "type": "function"
    },
    {
      "inputs": [
        {
          "internalType": "uint256",
          "name": "amount",
          "type": "uint256"
        }
      ],
      "name": "stake",
      "outputs": [],
      "stateMutability": "nonpayable",
      "type": "function"
    },
    {
      "inputs": [],
      "name": "stakeReport",
      "outputs": [
        {
          "internalType": "uint256",
          "name": "",
          "type": "uint256"
        },
        {
          "internalType": "uint256",
          "name": "",
          "type": "uint256"
        }
      ],
      "stateMutability": "view",
      "type": "function"
    },
    {
      "inputs": [],
      "name": "symbol",
      "outputs": [
        {
          "internalType": "string",
          "name": "",
          "type": "string"
        }
      ],
      "stateMutability": "view",
      "type": "function"
    },
    {
      "inputs": [],
      "name": "totalSupply",
      "outputs": [
        {
          "internalType": "uint256",
          "name": "",
          "type": "uint256"
        }
      ],
      "stateMutability": "view",
      "type": "function"
    },
    {
      "inputs": [
        {
          "internalType": "address",
          "name": "recipient",
          "type": "address"
        },
        {
          "internalType": "uint256",
          "name": "amount",
          "type": "uint256"
        }
      ],
      "name": "transfer",
      "outputs": [
        {
          "internalType": "bool",
          "name": "",
          "type": "bool"
        }
      ],
      "stateMutability": "nonpayable",
      "type": "function"
    },
    {
      "inputs": [
        {
          "internalType": "address",
          "name": "spender",
          "type": "address"
        },
        {
          "internalType": "address",
          "name": "recipient",
          "type": "address"
        },
        {
          "internalType": "uint256",
          "name": "amount",
          "type": "uint256"
        }
      ],
      "name": "transferFrom",
      "outputs": [
        {
          "internalType": "bool",
          "name": "",
          "type": "bool"
        }
      ],
      "stateMutability": "nonpayable",
      "type": "function"
    },
    {
      "inputs": [
        {
          "internalType": "address",
          "name": "newOwner",
          "type": "address"
        }
      ],
      "name": "transferOwnership",
      "outputs": [],
      "stateMutability": "nonpayable",
      "type": "function"
    },
    {
      "inputs": [
        {
          "internalType": "uint256",
          "name": "amount",
          "type": "uint256"
        }
      ],
      "name": "unstake",
      "outputs": [],
      "stateMutability": "nonpayable",
      "type": "function"
    },
    {
      "inputs": [
        {
          "internalType": "uint256",
          "name": "orderId",
          "type": "uint256"
        },
        {
          "internalType": "uint256",
          "name": "newPrice",
          "type": "uint256"
        }
      ],
      "name": "updateOrderPrice",
      "outputs": [],
      "stateMutability": "nonpayable",
      "type": "function"
    },
    {
      "inputs": [],
      "name": "withdraw",
      "outputs": [],
      "stateMutability": "payable",
      "type": "function"
    }
  ],
  "bytecode": "0x60806040526169786001553480156200001757600080fd5b50604051620055e8380380620055e883398181016040528101906200003d9190620005a9565b6200005d62000051620001ad60201b60201c565b620001b560201b60201c565b6002600181600181540180825580915050039060005260206000209050508360058190555082600990805190602001906200009a92919062000459565b508160089080519060200190620000b392919062000459565b5080600760006101000a81548160ff021916908360ff160217905550600554600a60003373ffffffffffffffffffffffffffffffffffffffff1673ffffffffffffffffffffffffffffffffffffffff16815260200190815260200160002081905550662386f26fc10000600681905550620001396005546006546200027960201b60201c565b3373ffffffffffffffffffffffffffffffffffffffff16600073ffffffffffffffffffffffffffffffffffffffff167fddf252ad1be2c89b69c2b068fc378daa952ba7f163c4a11628f55a4df523b3ef6005546040516200019b9190620006ea565b60405180910390a350505050620009c4565b600033905090565b60008060009054906101000a900473ffffffffffffffffffffffffffffffffffffffff169050816000806101000a81548173ffffffffffffffffffffffffffffffffffffffff021916908373ffffffffffffffffffffffffffffffffffffffff1602179055508173ffffffffffffffffffffffffffffffffffffffff168173ffffffffffffffffffffffffffffffffffffffff167f8be0079c531659141344cd1fd0a4f28419497f9722a3daafe3b4186f6b6457e060405160405180910390a35050565b60008211620002bf576040517f08c379a0000000000000000000000000000000000000000000000000000000008152600401620002b690620006c8565b60405180910390fd5b6000811162000305576040517f08c379a0000000000000000000000000000000000000000000000000000000008152600401620002fc90620006a6565b60405180910390fd5b6000600480549050905060046040518060a001604052808381526020013373ffffffffffffffffffffffffffffffffffffffff1681526020018581526020018481526020016001151581525090806001815401808255809150506001900390600052602060002090600502016000909190919091506000820151816000015560208201518160010160006101000a81548173ffffffffffffffffffffffffffffffffffffffff021916908373ffffffffffffffffffffffffffffffffffffffff160217905550604082015181600201556060820151816003015560808201518160040160006101000a81548160ff02191690831515021790555050503373ffffffffffffffffffffffffffffffffffffffff16817f59827a9898740dc87f0e01c9f27ae034611bb083f06d7eb3efaef27336e3c4dd85856040516200044c92919062000707565b60405180910390a3505050565b8280546200046790620007f1565b90600052602060002090601f0160209004810192826200048b5760008555620004d7565b82601f10620004a657805160ff1916838001178555620004d7565b82800160010185558215620004d7579182015b82811115620004d6578251825591602001919060010190620004b9565b5b509050620004e69190620004ea565b5090565b5b8082111562000505576000816000905550600101620004eb565b5090565b6000620005206200051a846200075d565b62000734565b9050828152602081018484840111156200053957600080fd5b62000546848285620007bb565b509392505050565b600082601f8301126200056057600080fd5b81516200057284826020860162000509565b91505092915050565b6000815190506200058c8162000990565b92915050565b600081519050620005a381620009aa565b92915050565b60008060008060808587031215620005c057600080fd5b6000620005d0878288016200057b565b945050602085015167ffffffffffffffff811115620005ee57600080fd5b620005fc878288016200054e565b935050604085015167ffffffffffffffff8111156200061a57600080fd5b62000628878288016200054e565b92505060606200063b8782880162000592565b91505092959194509250565b600062000656603c8362000793565b91506200066382620008cc565b604082019050919050565b60006200067d60478362000793565b91506200068a826200091b565b606082019050919050565b620006a081620007a4565b82525050565b60006020820190508181036000830152620006c18162000647565b9050919050565b60006020820190508181036000830152620006e3816200066e565b9050919050565b600060208201905062000701600083018462000695565b92915050565b60006040820190506200071e600083018562000695565b6200072d602083018462000695565b9392505050565b60006200074062000753565b90506200074e828262000827565b919050565b6000604051905090565b600067ffffffffffffffff8211156200077b576200077a6200088c565b5b6200078682620008bb565b9050602081019050919050565b600082825260208201905092915050565b6000819050919050565b600060ff82169050919050565b60005b83811015620007db578082015181840152602081019050620007be565b83811115620007eb576000848401525b50505050565b600060028204905060018216806200080a57607f821691505b602082108114156200082157620008206200085d565b5b50919050565b6200083282620008bb565b810181811067ffffffffffffffff821117156200085457620008536200088c565b5b80604052505050565b7f4e487b7100000000000000000000000000000000000000000000000000000000600052602260045260246000fd5b7f4e487b7100000000000000000000000000000000000000000000000000000000600052604160045260246000fd5b6000601f19601f8301169050919050565b7f5472616261626c653a20796f75206f7264657220746f6b656e2070726963652060008201527f6d75737420626520706f737469766520616e64206e6f74206e756c6c00000000602082015250565b7f5472616461626c653a20796f752063616e206f6e6c7920706c6163652061207360008201527f656c6c206f72646572206f66206120706f736974697665206e6f6e206e756c6c60208201527f20616d6f756e7400000000000000000000000000000000000000000000000000604082015250565b6200099b81620007a4565b8114620009a757600080fd5b50565b620009b581620007ae565b8114620009c157600080fd5b50565b614c1480620009d46000396000f3fe60806040526004361061019c5760003560e01c8063843f61e2116100ec578063a9059cbb1161008a578063dd62ed3e11610064578063dd62ed3e1461059b578063ea46193e146105d8578063f2fde38b14610603578063f751758b1461062c5761019c565b8063a9059cbb1461050a578063b88a802f14610547578063d09ef2411461055e5761019c565b80639645337a116100c65780639645337a1461044f57806396e35b29146104785780639dc29fac146104a4578063a694fc3a146104e15761019c565b8063843f61e2146103d05780638da5cb5b146103f957806395d89b41146104245761019c565b80632e17de781161015957806340c10f191161013357806340c10f19146103165780635e9e78d01461035357806370a082311461037c578063715018a6146103b95761019c565b80632e17de78146102b8578063313ce567146102e15780633ccfd60b1461030c5761019c565b806306fdde03146101a1578063095ea7b3146101cc578063142ee8d814610209578063176091f41461022557806318160ddd1461025057806323b872dd1461027b575b600080fd5b3480156101ad57600080fd5b506101b6610657565b6040516101c39190613d39565b60405180910390f35b3480156101d857600080fd5b506101f360048036038101906101ee91906136b5565b6106e9565b6040516102009190613d1e565b60405180910390f35b610223600480360381019061021e919061371a565b610700565b005b34801561023157600080fd5b5061023a6109a6565b6040516102479190613cfc565b60405180910390f35b34801561025c57600080fd5b506102656109b5565b6040516102729190614096565b60405180910390f35b34801561028757600080fd5b506102a2600480360381019061029d9190613666565b6109bf565b6040516102af9190613d1e565b60405180910390f35b3480156102c457600080fd5b506102df60048036038101906102da91906136f1565b610b28565b005b3480156102ed57600080fd5b506102f6610b43565b6040516103039190614111565b60405180910390f35b610314610b5a565b005b34801561032257600080fd5b5061033d600480360381019061033891906136b5565b610e52565b60405161034a9190613d1e565b60405180910390f35b34801561035f57600080fd5b5061037a6004803603810190610375919061371a565b610e70565b005b34801561038857600080fd5b506103a3600480360381019061039e9190613601565b610e7e565b6040516103b09190614096565b60405180910390f35b3480156103c557600080fd5b506103ce610ec7565b005b3480156103dc57600080fd5b506103f760048036038101906103f2919061371a565b610edb565b005b34801561040557600080fd5b5061040e610f75565b60405161041b9190613ce1565b60405180910390f35b34801561043057600080fd5b50610439610f9e565b6040516104469190613d39565b60405180910390f35b34801561045b57600080fd5b50610476600480360381019061047191906136f1565b611030565b005b34801561048457600080fd5b5061048d611058565b60405161049b9291906140b1565b60405180910390f35b3480156104b057600080fd5b506104cb60048036038101906104c691906136b5565b611198565b6040516104d89190613d1e565b60405180910390f35b3480156104ed57600080fd5b50610508600480360381019061050391906136f1565b6111b6565b005b34801561051657600080fd5b50610531600480360381019061052c91906136b5565b61124e565b60405161053e9190613d1e565b60405180910390f35b34801561055357600080fd5b5061055c611265565b005b34801561056a57600080fd5b50610585600480360381019061058091906136f1565b61127e565b604051610592919061407b565b60405180910390f35b3480156105a757600080fd5b506105c260048036038101906105bd919061362a565b611296565b6040516105cf9190614096565b60405180910390f35b3480156105e457600080fd5b506105ed61131d565b6040516105fa9190614096565b60405180910390f35b34801561060f57600080fd5b5061062a60048036038101906106259190613601565b611364565b005b34801561063857600080fd5b506106416113e8565b60405161064e9190614096565b60405180910390f35b60606009805461066690614329565b80601f016020809104026020016040519081016040528092919081815260200182805461069290614329565b80156106df5780601f106106b4576101008083540402835291602001916106df565b820191906000526020600020905b8154815290600101906020018083116106c257829003601f168201915b5050505050905090565b60006106f63384846113f2565b6001905092915050565b600d60003373ffffffffffffffffffffffffffffffffffffffff1673ffffffffffffffffffffffffffffffffffffffff16815260200190815260200160002060009054906101000a900460ff161561078d576040517f08c379a000000000000000000000000000000000000000000000000000000000815260040161078490613f3b565b60405180910390fd5b6001600d60003373ffffffffffffffffffffffffffffffffffffffff1673ffffffffffffffffffffffffffffffffffffffff16815260200190815260200160002060006101000a81548160ff02191690831515021790555060006107f0836115bd565b905060008282606001516108049190614213565b905080341015610849576040517f08c379a000000000000000000000000000000000000000000000000000000000815260040161084090613ffb565b60405180910390fd5b6000610853610f75565b9050600060643461086491906141e2565b905060008134610874919061426d565b905080600c6000876020015173ffffffffffffffffffffffffffffffffffffffff1673ffffffffffffffffffffffffffffffffffffffff16815260200190815260200160002060008282546108c9919061418c565b9250508190555081600c60008573ffffffffffffffffffffffffffffffffffffffff1673ffffffffffffffffffffffffffffffffffffffff168152602001908152602001600020600082825461091f919061418c565b9250508190555061093087876116ae565b84606001516006819055506109453387611b7a565b50505050506000600d60003373ffffffffffffffffffffffffffffffffffffffff1673ffffffffffffffffffffffffffffffffffffffff16815260200190815260200160002060006101000a81548160ff0219169083151502179055505050565b60606109b0611cf6565b905090565b6000600554905090565b600081600b60008673ffffffffffffffffffffffffffffffffffffffff1673ffffffffffffffffffffffffffffffffffffffff16815260200190815260200160002060003373ffffffffffffffffffffffffffffffffffffffff1673ffffffffffffffffffffffffffffffffffffffff168152602001908152602001600020541015610a80576040517f08c379a0000000000000000000000000000000000000000000000000000000008152600401610a7790613e3b565b60405180910390fd5b610a8b848484611de4565b610b1d843384600b60008973ffffffffffffffffffffffffffffffffffffffff1673ffffffffffffffffffffffffffffffffffffffff16815260200190815260200160002060003373ffffffffffffffffffffffffffffffffffffffff1673ffffffffffffffffffffffffffffffffffffffff16815260200190815260200160002054610b18919061426d565b6113f2565b600190509392505050565b6000610b33826120cc565b9050610b3f3382611b7a565b5050565b6000600760009054906101000a900460ff16905090565b600d60003373ffffffffffffffffffffffffffffffffffffffff1673ffffffffffffffffffffffffffffffffffffffff16815260200190815260200160002060009054906101000a900460ff1615610be7576040517f08c379a0000000000000000000000000000000000000000000000000000000008152600401610bde90613f3b565b60405180910390fd5b6001600d60003373ffffffffffffffffffffffffffffffffffffffff1673ffffffffffffffffffffffffffffffffffffffff16815260200190815260200160002060006101000a81548160ff0219169083151502179055506000600c60003373ffffffffffffffffffffffffffffffffffffffff1673ffffffffffffffffffffffffffffffffffffffff1681526020019081526020016000205411610cc1576040517f08c379a0000000000000000000000000000000000000000000000000000000008152600401610cb890613f7b565b60405180910390fd5b6000600c60003373ffffffffffffffffffffffffffffffffffffffff1673ffffffffffffffffffffffffffffffffffffffff1681526020019081526020016000205490506000600c60003373ffffffffffffffffffffffffffffffffffffffff1673ffffffffffffffffffffffffffffffffffffffff1681526020019081526020016000208190555060003373ffffffffffffffffffffffffffffffffffffffff1682604051610d7090613ccc565b60006040518083038185875af1925050503d8060008114610dad576040519150601f19603f3d011682016040523d82523d6000602084013e610db2565b606091505b5050905080610df6576040517f08c379a0000000000000000000000000000000000000000000000000000000008152600401610ded9061401b565b60405180910390fd5b50506000600d60003373ffffffffffffffffffffffffffffffffffffffff1673ffffffffffffffffffffffffffffffffffffffff16815260200190815260200160002060006101000a81548160ff021916908315150217905550565b6000610e5c61245f565b610e668383611b7a565b6001905092915050565b610e7a82826124dd565b5050565b6000600a60008373ffffffffffffffffffffffffffffffffffffffff1673ffffffffffffffffffffffffffffffffffffffff168152602001908152602001600020549050919050565b610ecf61245f565b610ed96000612724565b565b600a60003373ffffffffffffffffffffffffffffffffffffffff1673ffffffffffffffffffffffffffffffffffffffff16815260200190815260200160002054821115610f5d576040517f08c379a0000000000000000000000000000000000000000000000000000000008152600401610f5490613e5b565b60405180910390fd5b610f6733836127e8565b610f7182826129e6565b5050565b60008060009054906101000a900473ffffffffffffffffffffffffffffffffffffffff16905090565b606060088054610fad90614329565b80601f0160208091040260200160405190810160405280929190818152602001828054610fd990614329565b80156110265780601f10610ffb57610100808354040283529160200191611026565b820191906000526020600020905b81548152906001019060200180831161100957829003601f168201915b5050505050905090565b61103981612bbe565b6000611044826115bd565b9050611054338260400151611b7a565b5050565b6000806000600360003373ffffffffffffffffffffffffffffffffffffffff1673ffffffffffffffffffffffffffffffffffffffff1681526020019081526020016000205414156110de576040517f08c379a00000000000000000000000000000000000000000000000000000000081526004016110d59061403b565b60405180910390fd5b6000600360003373ffffffffffffffffffffffffffffffffffffffff1673ffffffffffffffffffffffffffffffffffffffff16815260200190815260200160002054905060006002828154811061115e577f4e487b7100000000000000000000000000000000000000000000000000000000600052603260045260246000fd5b90600052602060002090600202016001018054905090506000806111828484612d9d565b8092508193505050818195509550505050509091565b60006111a261245f565b6111ac83836127e8565b6001905092915050565b600a60003373ffffffffffffffffffffffffffffffffffffffff1673ffffffffffffffffffffffffffffffffffffffff16815260200190815260200160002054811115611238576040517f08c379a000000000000000000000000000000000000000000000000000000000815260040161122f90613e7b565b60405180910390fd5b61124181612f0a565b61124b33826127e8565b50565b600061125b338484611de4565b6001905092915050565b600061126f613104565b905061127b3382611b7a565b50565b611286613590565b61128f826115bd565b9050919050565b6000600b60008473ffffffffffffffffffffffffffffffffffffffff1673ffffffffffffffffffffffffffffffffffffffff16815260200190815260200160002060008373ffffffffffffffffffffffffffffffffffffffff1673ffffffffffffffffffffffffffffffffffffffff16815260200190815260200160002054905092915050565b6000600c60003373ffffffffffffffffffffffffffffffffffffffff1673ffffffffffffffffffffffffffffffffffffffff16815260200190815260200160002054905090565b61136c61245f565b600073ffffffffffffffffffffffffffffffffffffffff168173ffffffffffffffffffffffffffffffffffffffff1614156113dc576040517f08c379a00000000000000000000000000000000000000000000000000000000081526004016113d390613d9b565b60405180910390fd5b6113e581612724565b50565b6000600654905090565b600073ffffffffffffffffffffffffffffffffffffffff168373ffffffffffffffffffffffffffffffffffffffff161415611462576040517f08c379a000000000000000000000000000000000000000000000000000000000815260040161145990613e9b565b60405180910390fd5b600073ffffffffffffffffffffffffffffffffffffffff168273ffffffffffffffffffffffffffffffffffffffff1614156114d2576040517f08c379a00000000000000000000000000000000000000000000000000000000081526004016114c990613dfb565b60405180910390fd5b80600b60008573ffffffffffffffffffffffffffffffffffffffff1673ffffffffffffffffffffffffffffffffffffffff16815260200190815260200160002060008473ffffffffffffffffffffffffffffffffffffffff1673ffffffffffffffffffffffffffffffffffffffff168152602001908152602001600020819055508173ffffffffffffffffffffffffffffffffffffffff168373ffffffffffffffffffffffffffffffffffffffff167f8c5be1e5ebec7d5bd14f71427d1e84f3dd0314c0f7b2291e5b200ac8c7c3b925836040516115b09190614096565b60405180910390a3505050565b6115c5613590565b600482815481106115ff577f4e487b7100000000000000000000000000000000000000000000000000000000600052603260045260246000fd5b90600052602060002090600502016040518060a0016040529081600082015481526020016001820160009054906101000a900473ffffffffffffffffffffffffffffffffffffffff1673ffffffffffffffffffffffffffffffffffffffff1673ffffffffffffffffffffffffffffffffffffffff16815260200160028201548152602001600382015481526020016004820160009054906101000a900460ff1615151515815250509050919050565b3373ffffffffffffffffffffffffffffffffffffffff16600483815481106116ff577f4e487b7100000000000000000000000000000000000000000000000000000000600052603260045260246000fd5b906000526020600020906005020160010160009054906101000a900473ffffffffffffffffffffffffffffffffffffffff1673ffffffffffffffffffffffffffffffffffffffff161415611788576040517f08c379a000000000000000000000000000000000000000000000000000000000815260040161177f90613d5b565b60405180910390fd5b60011515600483815481106117c6577f4e487b7100000000000000000000000000000000000000000000000000000000600052603260045260246000fd5b906000526020600020906005020160040160009054906101000a900460ff16151514611827576040517f08c379a000000000000000000000000000000000000000000000000000000000815260040161181e90613edb565b60405180910390fd5b60048281548110611861577f4e487b7100000000000000000000000000000000000000000000000000000000600052603260045260246000fd5b9060005260206000209060050201600201548111156118b5576040517f08c379a00000000000000000000000000000000000000000000000000000000081526004016118ac90613e1b565b60405180910390fd5b80600483815481106118f0577f4e487b7100000000000000000000000000000000000000000000000000000000600052603260045260246000fd5b90600052602060002090600502016002016000828254611910919061426d565b92505081905550600060048381548110611953577f4e487b7100000000000000000000000000000000000000000000000000000000600052603260045260246000fd5b90600052602060002090600502016002015414156119d4576000600483815481106119a7577f4e487b7100000000000000000000000000000000000000000000000000000000600052603260045260246000fd5b906000526020600020906005020160040160006101000a81548160ff021916908315150217905550611a58565b817f77b55f9e1287f00eecbb02dc56c525807beb51821d1d6cfe4447ba6fa3d84ed160048481548110611a30577f4e487b7100000000000000000000000000000000000000000000000000000000600052603260045260246000fd5b906000526020600020906005020160020154604051611a4f9190614096565b60405180910390a25b3373ffffffffffffffffffffffffffffffffffffffff1660048381548110611aa9577f4e487b7100000000000000000000000000000000000000000000000000000000600052603260045260246000fd5b906000526020600020906005020160010160009054906101000a900473ffffffffffffffffffffffffffffffffffffffff1673ffffffffffffffffffffffffffffffffffffffff16837f7bb118c21a52fdd89f2c9037c19a28625e6b133d6e59f24c55c1a93d2edae0038460048781548110611b4e577f4e487b7100000000000000000000000000000000000000000000000000000000600052603260045260246000fd5b906000526020600020906005020160030154604051611b6e9291906140b1565b60405180910390a45050565b600073ffffffffffffffffffffffffffffffffffffffff168273ffffffffffffffffffffffffffffffffffffffff161415611bea576040517f08c379a0000000000000000000000000000000000000000000000000000000008152600401611be19061405b565b60405180910390fd5b80600554611bf8919061418c565b60058190555080600a60008473ffffffffffffffffffffffffffffffffffffffff1673ffffffffffffffffffffffffffffffffffffffff16815260200190815260200160002054611c49919061418c565b600a60008473ffffffffffffffffffffffffffffffffffffffff1673ffffffffffffffffffffffffffffffffffffffff168152602001908152602001600020819055508173ffffffffffffffffffffffffffffffffffffffff16600073ffffffffffffffffffffffffffffffffffffffff167fddf252ad1be2c89b69c2b068fc378daa952ba7f163c4a11628f55a4df523b3ef83604051611cea9190614096565b60405180910390a35050565b60606004805480602002602001604051908101604052809291908181526020016000905b82821015611ddb57838290600052602060002090600502016040518060a0016040529081600082015481526020016001820160009054906101000a900473ffffffffffffffffffffffffffffffffffffffff1673ffffffffffffffffffffffffffffffffffffffff1673ffffffffffffffffffffffffffffffffffffffff16815260200160028201548152602001600382015481526020016004820160009054906101000a900460ff16151515158152505081526020019060010190611d1a565b50505050905090565b600073ffffffffffffffffffffffffffffffffffffffff168373ffffffffffffffffffffffffffffffffffffffff161415611e54576040517f08c379a0000000000000000000000000000000000000000000000000000000008152600401611e4b90613fdb565b60405180910390fd5b600073ffffffffffffffffffffffffffffffffffffffff168273ffffffffffffffffffffffffffffffffffffffff161415611ec4576040517f08c379a0000000000000000000000000000000000000000000000000000000008152600401611ebb90613fbb565b60405180910390fd5b80600a60008573ffffffffffffffffffffffffffffffffffffffff1673ffffffffffffffffffffffffffffffffffffffff168152602001908152602001600020541015611f46576040517f08c379a0000000000000000000000000000000000000000000000000000000008152600401611f3d90613ddb565b60405180910390fd5b80600a60008473ffffffffffffffffffffffffffffffffffffffff1673ffffffffffffffffffffffffffffffffffffffff16815260200190815260200160002054611f91919061418c565b600a60008473ffffffffffffffffffffffffffffffffffffffff1673ffffffffffffffffffffffffffffffffffffffff1681526020019081526020016000208190555080600a60008573ffffffffffffffffffffffffffffffffffffffff1673ffffffffffffffffffffffffffffffffffffffff1681526020019081526020016000205461201f919061426d565b600a60008573ffffffffffffffffffffffffffffffffffffffff1673ffffffffffffffffffffffffffffffffffffffff168152602001908152602001600020819055508173ffffffffffffffffffffffffffffffffffffffff168373ffffffffffffffffffffffffffffffffffffffff167fddf252ad1be2c89b69c2b068fc378daa952ba7f163c4a11628f55a4df523b3ef836040516120bf9190614096565b60405180910390a3505050565b600080600360003373ffffffffffffffffffffffffffffffffffffffff1673ffffffffffffffffffffffffffffffffffffffff168152602001908152602001600020541415612150576040517f08c379a00000000000000000000000000000000000000000000000000000000081526004016121479061403b565b60405180910390fd5b6000600360003373ffffffffffffffffffffffffffffffffffffffff1673ffffffffffffffffffffffffffffffffffffffff1681526020019081526020016000205490506000600282815481106121d0577f4e487b7100000000000000000000000000000000000000000000000000000000600052603260045260246000fd5b906000526020600020906002020160010180549050905060008060006121f68585612d9d565b80935081945050508187111561232657612210858561334a565b6002858154811061224a577f4e487b7100000000000000000000000000000000000000000000000000000000600052603260045260246000fd5b906000526020600020906002020160010160405180606001604052803373ffffffffffffffffffffffffffffffffffffffff1681526020016000815260200142815250908060018154018082558091505060019003906000526020600020906003020160009091909190915060008201518160000160006101000a81548173ffffffffffffffffffffffffffffffffffffffff021916908373ffffffffffffffffffffffffffffffffffffffff16021790555060208201518160010155604082015181600201555050818361231f919061418c565b9050612452565b60008783612334919061426d565b9050612340868661334a565b6002868154811061237a577f4e487b7100000000000000000000000000000000000000000000000000000000600052603260045260246000fd5b906000526020600020906002020160010160405180606001604052803373ffffffffffffffffffffffffffffffffffffffff16815260200183815260200142815250908060018154018082558091505060019003906000526020600020906003020160009091909190915060008201518160000160006101000a81548173ffffffffffffffffffffffffffffffffffffffff021916908373ffffffffffffffffffffffffffffffffffffffff16021790555060208201518160010155604082015181600201555050878461244e919061418c565b9150505b8095505050505050919050565b612467613438565b73ffffffffffffffffffffffffffffffffffffffff16612485610f75565b73ffffffffffffffffffffffffffffffffffffffff16146124db576040517f08c379a00000000000000000000000000000000000000000000000000000000081526004016124d290613f9b565b60405180910390fd5b565b3373ffffffffffffffffffffffffffffffffffffffff166004838154811061252e577f4e487b7100000000000000000000000000000000000000000000000000000000600052603260045260246000fd5b906000526020600020906005020160010160009054906101000a900473ffffffffffffffffffffffffffffffffffffffff1673ffffffffffffffffffffffffffffffffffffffff16146125b6576040517f08c379a00000000000000000000000000000000000000000000000000000000081526004016125ad90613f1b565b60405180910390fd5b60011515600483815481106125f4577f4e487b7100000000000000000000000000000000000000000000000000000000600052603260045260246000fd5b906000526020600020906005020160040160009054906101000a900460ff16151514612655576040517f08c379a000000000000000000000000000000000000000000000000000000000815260040161264c90613edb565b60405180910390fd5b60008111612698576040517f08c379a000000000000000000000000000000000000000000000000000000000815260040161268f90613dbb565b60405180910390fd5b80600483815481106126d3577f4e487b7100000000000000000000000000000000000000000000000000000000600052603260045260246000fd5b906000526020600020906005020160030181905550817f9ce826527fa519a8bb184fb8f8402f35e26217289c08ec6015016a9f1b6bb37c826040516127189190614096565b60405180910390a25050565b60008060009054906101000a900473ffffffffffffffffffffffffffffffffffffffff169050816000806101000a81548173ffffffffffffffffffffffffffffffffffffffff021916908373ffffffffffffffffffffffffffffffffffffffff1602179055508173ffffffffffffffffffffffffffffffffffffffff168173ffffffffffffffffffffffffffffffffffffffff167f8be0079c531659141344cd1fd0a4f28419497f9722a3daafe3b4186f6b6457e060405160405180910390a35050565b600073ffffffffffffffffffffffffffffffffffffffff168273ffffffffffffffffffffffffffffffffffffffff161415612858576040517f08c379a000000000000000000000000000000000000000000000000000000000815260040161284f90613efb565b60405180910390fd5b80600a60008473ffffffffffffffffffffffffffffffffffffffff1673ffffffffffffffffffffffffffffffffffffffff1681526020019081526020016000205410156128da576040517f08c379a00000000000000000000000000000000000000000000000000000000081526004016128d190613ebb565b60405180910390fd5b80600a60008473ffffffffffffffffffffffffffffffffffffffff1673ffffffffffffffffffffffffffffffffffffffff16815260200190815260200160002054612925919061426d565b600a60008473ffffffffffffffffffffffffffffffffffffffff1673ffffffffffffffffffffffffffffffffffffffff1681526020019081526020016000208190555080600554612976919061426d565b600581905550600073ffffffffffffffffffffffffffffffffffffffff168273ffffffffffffffffffffffffffffffffffffffff167fddf252ad1be2c89b69c2b068fc378daa952ba7f163c4a11628f55a4df523b3ef836040516129da9190614096565b60405180910390a35050565b60008211612a29576040517f08c379a0000000000000000000000000000000000000000000000000000000008152600401612a2090613f5b565b60405180910390fd5b60008111612a6c576040517f08c379a0000000000000000000000000000000000000000000000000000000008152600401612a6390613dbb565b60405180910390fd5b6000600480549050905060046040518060a001604052808381526020013373ffffffffffffffffffffffffffffffffffffffff1681526020018581526020018481526020016001151581525090806001815401808255809150506001900390600052602060002090600502016000909190919091506000820151816000015560208201518160010160006101000a81548173ffffffffffffffffffffffffffffffffffffffff021916908373ffffffffffffffffffffffffffffffffffffffff160217905550604082015181600201556060820151816003015560808201518160040160006101000a81548160ff02191690831515021790555050503373ffffffffffffffffffffffffffffffffffffffff16817f59827a9898740dc87f0e01c9f27ae034611bb083f06d7eb3efaef27336e3c4dd8585604051612bb19291906140b1565b60405180910390a3505050565b3373ffffffffffffffffffffffffffffffffffffffff1660048281548110612c0f577f4e487b7100000000000000000000000000000000000000000000000000000000600052603260045260246000fd5b906000526020600020906005020160010160009054906101000a900473ffffffffffffffffffffffffffffffffffffffff1673ffffffffffffffffffffffffffffffffffffffff1614612c97576040517f08c379a0000000000000000000000000000000000000000000000000000000008152600401612c8e90613f1b565b60405180910390fd5b6001151560048281548110612cd5577f4e487b7100000000000000000000000000000000000000000000000000000000600052603260045260246000fd5b906000526020600020906005020160040160009054906101000a900460ff16151514612d36576040517f08c379a0000000000000000000000000000000000000000000000000000000008152600401612d2d90613edb565b60405180910390fd5b600060048281548110612d72577f4e487b7100000000000000000000000000000000000000000000000000000000600052603260045260246000fd5b906000526020600020906005020160040160006101000a81548160ff02191690831515021790555050565b60008060008060005b85811015612efa57600060028881548110612dea577f4e487b7100000000000000000000000000000000000000000000000000000000600052603260045260246000fd5b90600052602060002090600202016001018281548110612e33577f4e487b7100000000000000000000000000000000000000000000000000000000600052603260045260246000fd5b90600052602060002090600302016040518060600160405290816000820160009054906101000a900473ffffffffffffffffffffffffffffffffffffffff1673ffffffffffffffffffffffffffffffffffffffff1673ffffffffffffffffffffffffffffffffffffffff1681526020016001820154815260200160028201548152505090506000612ec382613440565b9050816020015184612ed5919061418c565b93508085612ee3919061418c565b945050508080612ef29061435b565b915050612da6565b5081819350935050509250929050565b60008111612f4d576040517f08c379a0000000000000000000000000000000000000000000000000000000008152600401612f4490613d7b565b60405180910390fd5b6000600360003373ffffffffffffffffffffffffffffffffffffffff1673ffffffffffffffffffffffffffffffffffffffff16815260200190815260200160002054905060004290506000821415612fab57612fa833613483565b91505b60028281548110612fe5577f4e487b7100000000000000000000000000000000000000000000000000000000600052603260045260246000fd5b906000526020600020906002020160010160405180606001604052803373ffffffffffffffffffffffffffffffffffffffff16815260200185815260200183815250908060018154018082558091505060019003906000526020600020906003020160009091909190915060008201518160000160006101000a81548173ffffffffffffffffffffffffffffffffffffffff021916908373ffffffffffffffffffffffffffffffffffffffff160217905550602082015181600101556040820151816002015550503373ffffffffffffffffffffffffffffffffffffffff167fb4caaf29adda3eefee3ad552a8e85058589bf834c7466cae4ee58787f70589ed8484846040516130f7939291906140da565b60405180910390a2505050565b600080600360003373ffffffffffffffffffffffffffffffffffffffff1673ffffffffffffffffffffffffffffffffffffffff168152602001908152602001600020541415613188576040517f08c379a000000000000000000000000000000000000000000000000000000000815260040161317f9061403b565b60405180910390fd5b6000600360003373ffffffffffffffffffffffffffffffffffffffff1673ffffffffffffffffffffffffffffffffffffffff168152602001908152602001600020549050600060028281548110613208577f4e487b7100000000000000000000000000000000000000000000000000000000600052603260045260246000fd5b906000526020600020906002020160010180549050905060008061322c8484612d9d565b809250819350505061323e848461334a565b60028481548110613278577f4e487b7100000000000000000000000000000000000000000000000000000000600052603260045260246000fd5b906000526020600020906002020160010160405180606001604052803373ffffffffffffffffffffffffffffffffffffffff16815260200183815260200142815250908060018154018082558091505060019003906000526020600020906003020160009091909190915060008201518160000160006101000a81548173ffffffffffffffffffffffffffffffffffffffff021916908373ffffffffffffffffffffffffffffffffffffffff160217905550602082015181600101556040820151816002015550508194505050505090565b60005b81811015613433576002838154811061338f577f4e487b7100000000000000000000000000000000000000000000000000000000600052603260045260246000fd5b906000526020600020906002020160010181815481106133d8577f4e487b7100000000000000000000000000000000000000000000000000000000600052603260045260246000fd5b9060005260206000209060030201600080820160006101000a81549073ffffffffffffffffffffffffffffffffffffffff0219169055600182016000905560028201600090555050808061342b9061435b565b91505061334d565b505050565b600033905090565b600060015482602001516201518084604001514261345e919061426d565b61346891906141e2565b6134729190614213565b61347c91906141e2565b9050919050565b6000600260018160018154018082558091505003906000526020600020905050600060016002805490506134b7919061426d565b905082600282815481106134f4577f4e487b7100000000000000000000000000000000000000000000000000000000600052603260045260246000fd5b906000526020600020906002020160000160006101000a81548173ffffffffffffffffffffffffffffffffffffffff021916908373ffffffffffffffffffffffffffffffffffffffff16021790555080600360008573ffffffffffffffffffffffffffffffffffffffff1673ffffffffffffffffffffffffffffffffffffffff1681526020019081526020016000208190555080915050919050565b6040518060a0016040528060008152602001600073ffffffffffffffffffffffffffffffffffffffff16815260200160008152602001600081526020016000151581525090565b6000813590506135e681614bb0565b92915050565b6000813590506135fb81614bc7565b92915050565b60006020828403121561361357600080fd5b6000613621848285016135d7565b91505092915050565b6000806040838503121561363d57600080fd5b600061364b858286016135d7565b925050602061365c858286016135d7565b9150509250929050565b60008060006060848603121561367b57600080fd5b6000613689868287016135d7565b935050602061369a868287016135d7565b92505060406136ab868287016135ec565b9150509250925092565b600080604083850312156136c857600080fd5b60006136d6858286016135d7565b92505060206136e7858286016135ec565b9150509250929050565b60006020828403121561370357600080fd5b6000613711848285016135ec565b91505092915050565b6000806040838503121561372d57600080fd5b600061373b858286016135ec565b925050602061374c858286016135ec565b9150509250929050565b60006137628383613bcf565b60a08301905092915050565b613777816142a1565b82525050565b613786816142a1565b82525050565b60006137978261413c565b6137a1818561415f565b93506137ac8361412c565b8060005b838110156137dd5781516137c48882613756565b97506137cf83614152565b9250506001810190506137b0565b5085935050505092915050565b6137f3816142b3565b82525050565b613802816142b3565b82525050565b600061381382614147565b61381d818561417b565b935061382d8185602086016142f6565b61383681614431565b840191505092915050565b600061384e60278361417b565b915061385982614442565b604082019050919050565b600061387160378361417b565b915061387c82614491565b604082019050919050565b600061389460268361417b565b915061389f826144e0565b604082019050919050565b60006138b7603c8361417b565b91506138c28261452f565b604082019050919050565b60006138da602d8361417b565b91506138e58261457e565b604082019050919050565b60006138fd60228361417b565b9150613908826145cd565b604082019050919050565b600061392060398361417b565b915061392b8261461c565b604082019050919050565b600061394360318361417b565b915061394e8261466b565b604082019050919050565b600061396660338361417b565b9150613971826146ba565b604082019050919050565b600061398960258361417b565b915061399482614709565b604082019050919050565b60006139ac60228361417b565b91506139b782614758565b604082019050919050565b60006139cf60298361417b565b91506139da826147a7565b604082019050919050565b60006139f2602c8361417b565b91506139fd826147f6565b604082019050919050565b6000613a1560248361417b565b9150613a2082614845565b604082019050919050565b6000613a3860218361417b565b9150613a4382614894565b604082019050919050565b6000613a5b60148361417b565b9150613a66826148e3565b602082019050919050565b6000613a7e60478361417b565b9150613a898261490c565b606082019050919050565b6000613aa160218361417b565b9150613aac82614981565b604082019050919050565b6000613ac460208361417b565b9150613acf826149d0565b602082019050919050565b6000613ae760268361417b565b9150613af2826149f9565b604082019050919050565b6000613b0a60288361417b565b9150613b1582614a48565b604082019050919050565b6000613b2d60368361417b565b9150613b3882614a97565b604082019050919050565b6000613b50600083614170565b9150613b5b82614ae6565b600082019050919050565b6000613b7360178361417b565b9150613b7e82614ae9565b602082019050919050565b6000613b9660248361417b565b9150613ba182614b12565b604082019050919050565b6000613bb960228361417b565b9150613bc482614b61565b604082019050919050565b60a082016000820151613be56000850182613c9f565b506020820151613bf8602085018261376e565b506040820151613c0b6040850182613c9f565b506060820151613c1e6060850182613c9f565b506080820151613c3160808501826137ea565b50505050565b60a082016000820151613c4d6000850182613c9f565b506020820151613c60602085018261376e565b506040820151613c736040850182613c9f565b506060820151613c866060850182613c9f565b506080820151613c9960808501826137ea565b50505050565b613ca8816142df565b82525050565b613cb7816142df565b82525050565b613cc6816142e9565b82525050565b6000613cd782613b43565b9150819050919050565b6000602082019050613cf6600083018461377d565b92915050565b60006020820190508181036000830152613d16818461378c565b905092915050565b6000602082019050613d3360008301846137f9565b92915050565b60006020820190508181036000830152613d538184613808565b905092915050565b60006020820190508181036000830152613d7481613841565b9050919050565b60006020820190508181036000830152613d9481613864565b9050919050565b60006020820190508181036000830152613db481613887565b9050919050565b60006020820190508181036000830152613dd4816138aa565b9050919050565b60006020820190508181036000830152613df4816138cd565b9050919050565b60006020820190508181036000830152613e14816138f0565b9050919050565b60006020820190508181036000830152613e3481613913565b9050919050565b60006020820190508181036000830152613e5481613936565b9050919050565b60006020820190508181036000830152613e7481613959565b9050919050565b60006020820190508181036000830152613e948161397c565b9050919050565b60006020820190508181036000830152613eb48161399f565b9050919050565b60006020820190508181036000830152613ed4816139c2565b9050919050565b60006020820190508181036000830152613ef4816139e5565b9050919050565b60006020820190508181036000830152613f1481613a08565b9050919050565b60006020820190508181036000830152613f3481613a2b565b9050919050565b60006020820190508181036000830152613f5481613a4e565b9050919050565b60006020820190508181036000830152613f7481613a71565b9050919050565b60006020820190508181036000830152613f9481613a94565b9050919050565b60006020820190508181036000830152613fb481613ab7565b9050919050565b60006020820190508181036000830152613fd481613ada565b9050919050565b60006020820190508181036000830152613ff481613afd565b9050919050565b6000602082019050818103600083015261401481613b20565b9050919050565b6000602082019050818103600083015261403481613b66565b9050919050565b6000602082019050818103600083015261405481613b89565b9050919050565b6000602082019050818103600083015261407481613bac565b9050919050565b600060a0820190506140906000830184613c37565b92915050565b60006020820190506140ab6000830184613cae565b92915050565b60006040820190506140c66000830185613cae565b6140d36020830184613cae565b9392505050565b60006060820190506140ef6000830186613cae565b6140fc6020830185613cae565b6141096040830184613cae565b949350505050565b60006020820190506141266000830184613cbd565b92915050565b6000819050602082019050919050565b600081519050919050565b600081519050919050565b6000602082019050919050565b600082825260208201905092915050565b600081905092915050565b600082825260208201905092915050565b6000614197826142df565b91506141a2836142df565b9250827fffffffffffffffffffffffffffffffffffffffffffffffffffffffffffffffff038211156141d7576141d66143a4565b5b828201905092915050565b60006141ed826142df565b91506141f8836142df565b925082614208576142076143d3565b5b828204905092915050565b600061421e826142df565b9150614229836142df565b9250817fffffffffffffffffffffffffffffffffffffffffffffffffffffffffffffffff0483118215151615614262576142616143a4565b5b828202905092915050565b6000614278826142df565b9150614283836142df565b925082821015614296576142956143a4565b5b828203905092915050565b60006142ac826142bf565b9050919050565b60008115159050919050565b600073ffffffffffffffffffffffffffffffffffffffff82169050919050565b6000819050919050565b600060ff82169050919050565b60005b838110156143145780820151818401526020810190506142f9565b83811115614323576000848401525b50505050565b6000600282049050600182168061434157607f821691505b6020821081141561435557614354614402565b5b50919050565b6000614366826142df565b91507fffffffffffffffffffffffffffffffffffffffffffffffffffffffffffffffff821415614399576143986143a4565b5b600182019050919050565b7f4e487b7100000000000000000000000000000000000000000000000000000000600052601160045260246000fd5b7f4e487b7100000000000000000000000000000000000000000000000000000000600052601260045260246000fd5b7f4e487b7100000000000000000000000000000000000000000000000000000000600052602260045260246000fd5b6000601f19601f8301169050919050565b7f5472616461626c653a20796f752063616e6e6f742062757920796f7572206f7760008201527f6e206f7264657200000000000000000000000000000000000000000000000000602082015250565b7f5374616b61626c653a20796f752063616e206f6e6c79207374616b652061207060008201527f6f736974697665206e6f6e206e756c6c20616d6f756e74000000000000000000602082015250565b7f4f776e61626c653a206e6577206f776e657220697320746865207a65726f206160008201527f6464726573730000000000000000000000000000000000000000000000000000602082015250565b7f5472616261626c653a20796f75206f7264657220746f6b656e2070726963652060008201527f6d75737420626520706f737469766520616e64206e6f74206e756c6c00000000602082015250565b7f546f6b656e3a2063616e6e6f74207472616e73666572206d6f7265207468616e60008201527f206163636f756e74206f776e7300000000000000000000000000000000000000602082015250565b7f546f6b656e3a2063616e6e6f7420617070726f7665207a65726f20616464726560008201527f7373000000000000000000000000000000000000000000000000000000000000602082015250565b7f5472616461626c653a2063616e6e6f742062757920616d6f756e74206772656160008201527f746572207468616e20706c61636564206f6e206f726465722e00000000000000602082015250565b7f546f6b656e3a20596f752063616e6e6f74207370656e642074686174206d756360008201527f68206f6e2074686973206163636f756e74000000000000000000000000000000602082015250565b7f546f6b656e3a2063616e6e6f7420706c61636520616e206f726465722077697460008201527f68206d6f7265207468616e20796f75206f776e00000000000000000000000000602082015250565b7f546f6b656e3a2063616e6e6f74207374616b65206d6f7265207468616e20796f60008201527f75206f776e000000000000000000000000000000000000000000000000000000602082015250565b7f546f6b656e3a207a65726f20616464726573732063616e6e6f7420617070726f60008201527f7665000000000000000000000000000000000000000000000000000000000000602082015250565b7f546f6b656e3a2063616e6e6f74206275726e206d6f7265207468616e2061636360008201527f6f756e74206f776e730000000000000000000000000000000000000000000000602082015250565b7f5472616461626c653a206f726465722077617320616c72656164792072656d6f60008201527f766564206f722062757965640000000000000000000000000000000000000000602082015250565b7f546f6b656e3a2063616e6e6f74206275726e2066726f6d207a65726f2061646460008201527f7265737300000000000000000000000000000000000000000000000000000000602082015250565b7f5472616461626c653a2074686174206f72646572206973206e6f7420796f757260008201527f7300000000000000000000000000000000000000000000000000000000000000602082015250565b7f546f6b656e3a206e6f207265656e7472616e6379000000000000000000000000600082015250565b7f5472616461626c653a20796f752063616e206f6e6c7920706c6163652061207360008201527f656c6c206f72646572206f66206120706f736974697665206e6f6e206e756c6c60208201527f20616d6f756e7400000000000000000000000000000000000000000000000000604082015250565b7f546f6b656e3a206e6f206574686572206c65667420746f20776974686472617760008201527f2e00000000000000000000000000000000000000000000000000000000000000602082015250565b7f4f776e61626c653a2063616c6c6572206973206e6f7420746865206f776e6572600082015250565b7f546f6b656e3a2063616e6e6f74207472616e7366657220746f207a65726f206160008201527f6464726573730000000000000000000000000000000000000000000000000000602082015250565b7f546f6b656e3a2063616e6e6f74207472616e736665722066726f6d207a65726f60008201527f2061646472657373000000000000000000000000000000000000000000000000602082015250565b7f546f6b656e3a2065746865722073656e74206d7573742062652067726561746560008201527f72206f7220657175616c206f7264657250726963652e00000000000000000000602082015250565b50565b7f546f6b656e3a207769746864726177206661696c65642e000000000000000000600082015250565b7f5374616b61626c653a206164647265737320686173206e6f7468696e6720737460008201527f616b656400000000000000000000000000000000000000000000000000000000602082015250565b7f546f6b656e3a2063616e6e6f74206d696e7420746f207a65726f20616464726560008201527f7373000000000000000000000000000000000000000000000000000000000000602082015250565b614bb9816142a1565b8114614bc457600080fd5b50565b614bd0816142df565b8114614bdb57600080fd5b5056fea26469706673582212208288beef76965f1b4f5bd73264abaf13813d07d8041151b19e64509f2786539764736f6c63430008040033",
  "linkReferences": {},
  "deployedLinkReferences": {}
}